{
  "_format": "hh-sol-artifact-1",
  "contractName": "MetaSimba",
  "sourceName": "contracts/MetaSimba.sol",
  "abi": [
    {
      "inputs": [],
      "stateMutability": "nonpayable",
      "type": "constructor"
    },
    {
      "inputs": [],
      "name": "ApprovalCallerNotOwnerNorApproved",
      "type": "error"
    },
    {
      "inputs": [],
      "name": "ApprovalQueryForNonexistentToken",
      "type": "error"
    },
    {
      "inputs": [],
      "name": "ApproveToCaller",
      "type": "error"
    },
    {
      "inputs": [],
      "name": "BalanceQueryForZeroAddress",
      "type": "error"
    },
    {
      "inputs": [],
      "name": "MintERC2309QuantityExceedsLimit",
      "type": "error"
    },
    {
      "inputs": [],
      "name": "MintToZeroAddress",
      "type": "error"
    },
    {
      "inputs": [],
      "name": "MintZeroQuantity",
      "type": "error"
    },
    {
      "inputs": [],
      "name": "OwnerQueryForNonexistentToken",
      "type": "error"
    },
    {
      "inputs": [],
      "name": "OwnershipNotInitializedForExtraData",
      "type": "error"
    },
    {
      "inputs": [],
      "name": "TransferCallerNotOwnerNorApproved",
      "type": "error"
    },
    {
      "inputs": [],
      "name": "TransferFromIncorrectOwner",
      "type": "error"
    },
    {
      "inputs": [],
      "name": "TransferToNonERC721ReceiverImplementer",
      "type": "error"
    },
    {
      "inputs": [],
      "name": "TransferToZeroAddress",
      "type": "error"
    },
    {
      "inputs": [],
      "name": "URIQueryForNonexistentToken",
      "type": "error"
    },
    {
      "anonymous": false,
      "inputs": [
        {
          "indexed": true,
          "internalType": "address",
          "name": "owner",
          "type": "address"
        },
        {
          "indexed": true,
          "internalType": "address",
          "name": "approved",
          "type": "address"
        },
        {
          "indexed": true,
          "internalType": "uint256",
          "name": "tokenId",
          "type": "uint256"
        }
      ],
      "name": "Approval",
      "type": "event"
    },
    {
      "anonymous": false,
      "inputs": [
        {
          "indexed": true,
          "internalType": "address",
          "name": "owner",
          "type": "address"
        },
        {
          "indexed": true,
          "internalType": "address",
          "name": "operator",
          "type": "address"
        },
        {
          "indexed": false,
          "internalType": "bool",
          "name": "approved",
          "type": "bool"
        }
      ],
      "name": "ApprovalForAll",
      "type": "event"
    },
    {
      "anonymous": false,
      "inputs": [
        {
          "indexed": true,
          "internalType": "uint256",
          "name": "fromTokenId",
          "type": "uint256"
        },
        {
          "indexed": false,
          "internalType": "uint256",
          "name": "toTokenId",
          "type": "uint256"
        },
        {
          "indexed": true,
          "internalType": "address",
          "name": "from",
          "type": "address"
        },
        {
          "indexed": true,
          "internalType": "address",
          "name": "to",
          "type": "address"
        }
      ],
      "name": "ConsecutiveTransfer",
      "type": "event"
    },
    {
      "anonymous": false,
      "inputs": [
        {
          "indexed": true,
          "internalType": "address",
          "name": "previousOwner",
          "type": "address"
        },
        {
          "indexed": true,
          "internalType": "address",
          "name": "newOwner",
          "type": "address"
        }
      ],
      "name": "OwnershipTransferred",
      "type": "event"
    },
    {
      "anonymous": false,
      "inputs": [
        {
          "indexed": true,
          "internalType": "address",
          "name": "from",
          "type": "address"
        },
        {
          "indexed": true,
          "internalType": "address",
          "name": "to",
          "type": "address"
        },
        {
          "indexed": true,
          "internalType": "uint256",
          "name": "tokenId",
          "type": "uint256"
        }
      ],
      "name": "Transfer",
      "type": "event"
    },
    {
      "inputs": [
        {
          "internalType": "uint256",
          "name": "startTokenId",
          "type": "uint256"
        },
        {
          "internalType": "uint256",
          "name": "noOfTokenURI",
          "type": "uint256"
        }
      ],
      "name": "MultipletokenURIsAfterSelling",
      "outputs": [
        {
          "internalType": "string[]",
          "name": "",
          "type": "string[]"
        }
      ],
      "stateMutability": "view",
      "type": "function"
    },
    {
      "inputs": [
        {
          "internalType": "address",
          "name": "to",
          "type": "address"
        },
        {
          "internalType": "uint256",
          "name": "tokenId",
          "type": "uint256"
        }
      ],
      "name": "approve",
      "outputs": [],
      "stateMutability": "nonpayable",
      "type": "function"
    },
    {
      "inputs": [
        {
          "internalType": "address",
          "name": "owner",
          "type": "address"
        }
      ],
      "name": "balanceOf",
      "outputs": [
        {
          "internalType": "uint256",
          "name": "",
          "type": "uint256"
        }
      ],
      "stateMutability": "view",
      "type": "function"
    },
    {
      "inputs": [],
      "name": "baseExtension",
      "outputs": [
        {
          "internalType": "string",
          "name": "",
          "type": "string"
        }
      ],
      "stateMutability": "view",
      "type": "function"
    },
    {
      "inputs": [
        {
          "internalType": "string[]",
          "name": "URIs",
          "type": "string[]"
        }
      ],
      "name": "createTokens",
      "outputs": [],
      "stateMutability": "nonpayable",
      "type": "function"
    },
    {
      "inputs": [
        {
          "internalType": "uint256",
          "name": "tokenId",
          "type": "uint256"
        }
      ],
      "name": "getApproved",
      "outputs": [
        {
          "internalType": "address",
          "name": "",
          "type": "address"
        }
      ],
      "stateMutability": "view",
      "type": "function"
    },
    {
      "inputs": [
        {
          "internalType": "address",
          "name": "owner",
          "type": "address"
        },
        {
          "internalType": "address",
          "name": "operator",
          "type": "address"
        }
      ],
      "name": "isApprovedForAll",
      "outputs": [
        {
          "internalType": "bool",
          "name": "",
          "type": "bool"
        }
      ],
      "stateMutability": "view",
      "type": "function"
    },
    {
      "inputs": [],
      "name": "maxMintAmount",
      "outputs": [
        {
          "internalType": "uint256",
          "name": "",
          "type": "uint256"
        }
      ],
      "stateMutability": "view",
      "type": "function"
    },
    {
      "inputs": [],
      "name": "name",
      "outputs": [
        {
          "internalType": "string",
          "name": "",
          "type": "string"
        }
      ],
      "stateMutability": "view",
      "type": "function"
    },
    {
      "inputs": [],
      "name": "owner",
      "outputs": [
        {
          "internalType": "address",
          "name": "",
          "type": "address"
        }
      ],
      "stateMutability": "view",
      "type": "function"
    },
    {
      "inputs": [
        {
          "internalType": "uint256",
          "name": "tokenId",
          "type": "uint256"
        }
      ],
      "name": "ownerOf",
      "outputs": [
        {
          "internalType": "address",
          "name": "",
          "type": "address"
        }
      ],
      "stateMutability": "view",
      "type": "function"
    },
    {
      "inputs": [],
      "name": "renounceOwnership",
      "outputs": [],
      "stateMutability": "nonpayable",
      "type": "function"
    },
    {
      "inputs": [
        {
          "internalType": "address",
          "name": "from",
          "type": "address"
        },
        {
          "internalType": "address",
          "name": "to",
          "type": "address"
        },
        {
          "internalType": "uint256",
          "name": "tokenId",
          "type": "uint256"
        }
      ],
      "name": "safeTransferFrom",
      "outputs": [],
      "stateMutability": "nonpayable",
      "type": "function"
    },
    {
      "inputs": [
        {
          "internalType": "address",
          "name": "from",
          "type": "address"
        },
        {
          "internalType": "address",
          "name": "to",
          "type": "address"
        },
        {
          "internalType": "uint256",
          "name": "tokenId",
          "type": "uint256"
        },
        {
          "internalType": "bytes",
          "name": "_data",
          "type": "bytes"
        }
      ],
      "name": "safeTransferFrom",
      "outputs": [],
      "stateMutability": "nonpayable",
      "type": "function"
    },
    {
      "inputs": [
        {
          "internalType": "address",
          "name": "operator",
          "type": "address"
        },
        {
          "internalType": "bool",
          "name": "approved",
          "type": "bool"
        }
      ],
      "name": "setApprovalForAll",
      "outputs": [],
      "stateMutability": "nonpayable",
      "type": "function"
    },
    {
      "inputs": [
        {
          "internalType": "uint256",
          "name": "_newmaxMintAmount",
          "type": "uint256"
        }
      ],
      "name": "setmaxMintAmount",
      "outputs": [],
      "stateMutability": "nonpayable",
      "type": "function"
    },
    {
      "inputs": [
        {
          "internalType": "bytes4",
          "name": "interfaceId",
          "type": "bytes4"
        }
      ],
      "name": "supportsInterface",
      "outputs": [
        {
          "internalType": "bool",
          "name": "",
          "type": "bool"
        }
      ],
      "stateMutability": "view",
      "type": "function"
    },
    {
      "inputs": [],
      "name": "symbol",
      "outputs": [
        {
          "internalType": "string",
          "name": "",
          "type": "string"
        }
      ],
      "stateMutability": "view",
      "type": "function"
    },
    {
      "inputs": [
        {
          "internalType": "uint256",
          "name": "tokenId",
          "type": "uint256"
        }
      ],
      "name": "tokenURI",
      "outputs": [
        {
          "internalType": "string",
          "name": "",
          "type": "string"
        }
      ],
      "stateMutability": "view",
      "type": "function"
    },
    {
      "inputs": [],
      "name": "totalMintedNFTCount",
      "outputs": [
        {
          "internalType": "uint256",
          "name": "",
          "type": "uint256"
        }
      ],
      "stateMutability": "view",
      "type": "function"
    },
    {
      "inputs": [],
      "name": "totalSupply",
      "outputs": [
        {
          "internalType": "uint256",
          "name": "",
          "type": "uint256"
        }
      ],
      "stateMutability": "view",
      "type": "function"
    },
    {
      "inputs": [
        {
          "internalType": "address",
          "name": "from",
          "type": "address"
        },
        {
          "internalType": "address",
          "name": "to",
          "type": "address"
        },
        {
          "internalType": "uint256",
          "name": "tokenId",
          "type": "uint256"
        }
      ],
      "name": "transferFrom",
      "outputs": [],
      "stateMutability": "nonpayable",
      "type": "function"
    },
    {
      "inputs": [
        {
          "internalType": "address",
          "name": "newOwner",
          "type": "address"
        }
      ],
      "name": "transferOwnership",
      "outputs": [],
      "stateMutability": "nonpayable",
      "type": "function"
    }
  ],
  "bytecode": "0x60806040526040518060400160405280600581526020017f2e6a736f6e000000000000000000000000000000000000000000000000000000815250600b90805190602001906200005192919062000256565b50612710600c553480156200006557600080fd5b506040518060400160405280600781526020017f4d757374616661000000000000000000000000000000000000000000000000008152506040518060400160405280600d81526020017f416e696d616c20536f63697479000000000000000000000000000000000000008152508160029080519060200190620000ea92919062000256565b5080600390805190602001906200010392919062000256565b50620001146200018360201b60201c565b60008190555050506200013c620001306200018860201b60201c565b6200019060201b60201c565b33600a60006101000a81548173ffffffffffffffffffffffffffffffffffffffff021916908373ffffffffffffffffffffffffffffffffffffffff1602179055506200036b565b600090565b600033905090565b6000600860009054906101000a900473ffffffffffffffffffffffffffffffffffffffff16905081600860006101000a81548173ffffffffffffffffffffffffffffffffffffffff021916908373ffffffffffffffffffffffffffffffffffffffff1602179055508173ffffffffffffffffffffffffffffffffffffffff168173ffffffffffffffffffffffffffffffffffffffff167f8be0079c531659141344cd1fd0a4f28419497f9722a3daafe3b4186f6b6457e060405160405180910390a35050565b828054620002649062000306565b90600052602060002090601f016020900481019282620002885760008555620002d4565b82601f10620002a357805160ff1916838001178555620002d4565b82800160010185558215620002d4579182015b82811115620002d3578251825591602001919060010190620002b6565b5b509050620002e39190620002e7565b5090565b5b8082111562000302576000816000905550600101620002e8565b5090565b600060028204905060018216806200031f57607f821691505b602082108114156200033657620003356200033c565b5b50919050565b7f4e487b7100000000000000000000000000000000000000000000000000000000600052602260045260246000fd5b61312e806200037b6000396000f3fe608060405234801561001057600080fd5b506004361061014d5760003560e01c8063715018a6116100c3578063b88d4fde1161007c578063b88d4fde1461038a578063c6682862146103a6578063c87b56dd146103c4578063de0b52d2146103f4578063e985e9c514610412578063f2fde38b146104425761014d565b8063715018a6146102dc5780637f00c7a6146102e65780638da5cb5b1461030257806395d89b4114610320578063a22cb4651461033e578063b74c825e1461035a5761014d565b8063239c70ae11610115578063239c70ae1461020a57806323b872dd1461022857806342842e0e14610244578063489729f8146102605780636352211e1461027c57806370a08231146102ac5761014d565b806301ffc9a71461015257806306fdde0314610182578063081812fc146101a0578063095ea7b3146101d057806318160ddd146101ec575b600080fd5b61016c60048036038101906101679190612452565b61045e565b6040516101799190612874565b60405180910390f35b61018a6104f0565b604051610197919061288f565b60405180910390f35b6101ba60048036038101906101b591906124a4565b610582565b6040516101c791906127eb565b60405180910390f35b6101ea60048036038101906101e591906123d5565b6105fe565b005b6101f461073f565b6040516102019190612a41565b60405180910390f35b610212610756565b60405161021f9190612a41565b60405180910390f35b610242600480360381019061023d91906122cf565b61075c565b005b61025e600480360381019061025991906122cf565b610a81565b005b61027a60048036038101906102759190612411565b610aa1565b005b610296600480360381019061029191906124a4565b610d65565b6040516102a391906127eb565b60405180910390f35b6102c660048036038101906102c1919061226a565b610d77565b6040516102d39190612a41565b60405180910390f35b6102e4610e30565b005b61030060048036038101906102fb91906124a4565b610e44565b005b61030a610e56565b60405161031791906127eb565b60405180910390f35b610328610e80565b604051610335919061288f565b60405180910390f35b61035860048036038101906103539190612399565b610f12565b005b610374600480360381019061036f91906124cd565b61108a565b6040516103819190612852565b60405180910390f35b6103a4600480360381019061039f919061231e565b61140f565b005b6103ae611482565b6040516103bb919061288f565b60405180910390f35b6103de60048036038101906103d991906124a4565b611510565b6040516103eb919061288f565b60405180910390f35b6103fc6115fd565b6040516104099190612a41565b60405180910390f35b61042c60048036038101906104279190612293565b61160e565b6040516104399190612874565b60405180910390f35b61045c6004803603810190610457919061226a565b6116a2565b005b60006301ffc9a760e01b827bffffffffffffffffffffffffffffffffffffffffffffffffffffffff191614806104b957506380ac58cd60e01b827bffffffffffffffffffffffffffffffffffffffffffffffffffffffff1916145b806104e95750635b5e139f60e01b827bffffffffffffffffffffffffffffffffffffffffffffffffffffffff1916145b9050919050565b6060600280546104ff90612cd1565b80601f016020809104026020016040519081016040528092919081815260200182805461052b90612cd1565b80156105785780601f1061054d57610100808354040283529160200191610578565b820191906000526020600020905b81548152906001019060200180831161055b57829003601f168201915b5050505050905090565b600061058d82611726565b6105c3576040517fcf4700e400000000000000000000000000000000000000000000000000000000815260040160405180910390fd5b6006600083815260200190815260200160002060009054906101000a900473ffffffffffffffffffffffffffffffffffffffff169050919050565b600061060982610d65565b90508073ffffffffffffffffffffffffffffffffffffffff1661062a611785565b73ffffffffffffffffffffffffffffffffffffffff161461068d5761065681610651611785565b61160e565b61068c576040517fcfb3b94200000000000000000000000000000000000000000000000000000000815260040160405180910390fd5b5b826006600084815260200190815260200160002060006101000a81548173ffffffffffffffffffffffffffffffffffffffff021916908373ffffffffffffffffffffffffffffffffffffffff160217905550818373ffffffffffffffffffffffffffffffffffffffff168273ffffffffffffffffffffffffffffffffffffffff167f8c5be1e5ebec7d5bd14f71427d1e84f3dd0314c0f7b2291e5b200ac8c7c3b92560405160405180910390a4505050565b600061074961178d565b6001546000540303905090565b600c5481565b600061076782611792565b90508373ffffffffffffffffffffffffffffffffffffffff168173ffffffffffffffffffffffffffffffffffffffff16146107ce576040517fa114810000000000000000000000000000000000000000000000000000000000815260040160405180910390fd5b6000806107da84611860565b915091506107f081876107eb611785565b611882565b61083c5761080586610800611785565b61160e565b61083b576040517f59c896be00000000000000000000000000000000000000000000000000000000815260040160405180910390fd5b5b600073ffffffffffffffffffffffffffffffffffffffff168573ffffffffffffffffffffffffffffffffffffffff1614156108a3576040517fea553b3400000000000000000000000000000000000000000000000000000000815260040160405180910390fd5b6108b086868660016118c6565b80156108bb57600082555b600560008773ffffffffffffffffffffffffffffffffffffffff1673ffffffffffffffffffffffffffffffffffffffff168152602001908152602001600020600081546001900391905081905550600560008673ffffffffffffffffffffffffffffffffffffffff1673ffffffffffffffffffffffffffffffffffffffff1681526020019081526020016000206000815460010191905081905550610989856109658888876118cc565b7c0200000000000000000000000000000000000000000000000000000000176118f4565b600460008681526020019081526020016000208190555060007c020000000000000000000000000000000000000000000000000000000084161415610a11576000600185019050600060046000838152602001908152602001600020541415610a0f576000548114610a0e578360046000838152602001908152602001600020819055505b5b505b838573ffffffffffffffffffffffffffffffffffffffff168773ffffffffffffffffffffffffffffffffffffffff167fddf252ad1be2c89b69c2b068fc378daa952ba7f163c4a11628f55a4df523b3ef60405160405180910390a4610a79868686600161191f565b505050505050565b610a9c8383836040518060200160405280600081525061140f565b505050565b610aa9611925565b600073ffffffffffffffffffffffffffffffffffffffff163373ffffffffffffffffffffffffffffffffffffffff161415610b19576040517f08c379a0000000000000000000000000000000000000000000000000000000008152600401610b1090612941565b60405180910390fd5b600a60009054906101000a900473ffffffffffffffffffffffffffffffffffffffff1673ffffffffffffffffffffffffffffffffffffffff163373ffffffffffffffffffffffffffffffffffffffff1614610ba9576040517f08c379a0000000000000000000000000000000000000000000000000000000008152600401610ba0906129c1565b60405180910390fd5b60008151905060008111610bf2576040517f08c379a0000000000000000000000000000000000000000000000000000000008152600401610be9906129e1565b60405180910390fd5b610bfc60096119a3565b81610c079190612b91565b600c541015610c4b576040517f08c379a0000000000000000000000000000000000000000000000000000000008152600401610c4290612a21565b60405180910390fd5b610c5533826119b1565b600080600090505b82811015610d5f57610c6f60096119a3565b9150610c7a82611726565b610cb9576040517f08c379a0000000000000000000000000000000000000000000000000000000008152600401610cb090612a01565b60405180910390fd5b610d0382858381518110610cf6577f4e487b7100000000000000000000000000000000000000000000000000000000600052603260045260246000fd5b60200260200101516119cf565b610d0d6009611a4b565b610d4c6040518060400160405280600881526020017f746f6b656e206e6f00000000000000000000000000000000000000000000000081525083611a61565b8080610d5790612d34565b915050610c5d565b50505050565b6000610d7082611792565b9050919050565b60008073ffffffffffffffffffffffffffffffffffffffff168273ffffffffffffffffffffffffffffffffffffffff161415610ddf576040517f8f4eb60400000000000000000000000000000000000000000000000000000000815260040160405180910390fd5b67ffffffffffffffff600560008473ffffffffffffffffffffffffffffffffffffffff1673ffffffffffffffffffffffffffffffffffffffff16815260200190815260200160002054169050919050565b610e38611925565b610e426000611afd565b565b610e4c611925565b80600c8190555050565b6000600860009054906101000a900473ffffffffffffffffffffffffffffffffffffffff16905090565b606060038054610e8f90612cd1565b80601f0160208091040260200160405190810160405280929190818152602001828054610ebb90612cd1565b8015610f085780601f10610edd57610100808354040283529160200191610f08565b820191906000526020600020905b815481529060010190602001808311610eeb57829003601f168201915b5050505050905090565b610f1a611785565b73ffffffffffffffffffffffffffffffffffffffff168273ffffffffffffffffffffffffffffffffffffffff161415610f7f576040517fb06307db00000000000000000000000000000000000000000000000000000000815260040160405180910390fd5b8060076000610f8c611785565b73ffffffffffffffffffffffffffffffffffffffff1673ffffffffffffffffffffffffffffffffffffffff16815260200190815260200160002060008473ffffffffffffffffffffffffffffffffffffffff1673ffffffffffffffffffffffffffffffffffffffff16815260200190815260200160002060006101000a81548160ff0219169083151502179055508173ffffffffffffffffffffffffffffffffffffffff16611039611785565b73ffffffffffffffffffffffffffffffffffffffff167f17307eab39ab6107e8899845ad3d59bd9653f200f220920489ca2b5937696c318360405161107e9190612874565b60405180910390a35050565b606061109660096119a3565b83106110d7576040517f08c379a00000000000000000000000000000000000000000000000000000000081526004016110ce90612961565b60405180910390fd5b600082846110e59190612b91565b90506110f160096119a3565b8111156111055761110260096119a3565b90505b6000808590505b828110156111db5761111d81611726565b61115c576040517f08c379a000000000000000000000000000000000000000000000000000000000815260040161115390612a01565b60405180910390fd5b600a60009054906101000a900473ffffffffffffffffffffffffffffffffffffffff1673ffffffffffffffffffffffffffffffffffffffff1661119e82610d65565b73ffffffffffffffffffffffffffffffffffffffff16146111c85781806111c490612d34565b9250505b80806111d390612d34565b91505061110c565b506000811415611220576040517f08c379a000000000000000000000000000000000000000000000000000000000815260040161121790612981565b60405180910390fd5b60008167ffffffffffffffff811115611262577f4e487b7100000000000000000000000000000000000000000000000000000000600052604160045260246000fd5b60405190808252806020026020018201604052801561129557816020015b60608152602001906001900390816112805790505b50905060008690505b8381101561140257600a60009054906101000a900473ffffffffffffffffffffffffffffffffffffffff1673ffffffffffffffffffffffffffffffffffffffff166112e882610d65565b73ffffffffffffffffffffffffffffffffffffffff16146113ef57600d6000828152602001908152602001600020805461132190612cd1565b80601f016020809104026020016040519081016040528092919081815260200182805461134d90612cd1565b801561139a5780601f1061136f5761010080835404028352916020019161139a565b820191906000526020600020905b81548152906001019060200180831161137d57829003601f168201915b50505050508288836113ac9190612be7565b815181106113e3577f4e487b7100000000000000000000000000000000000000000000000000000000600052603260045260246000fd5b60200260200101819052505b80806113fa90612d34565b91505061129e565b5080935050505092915050565b61141a84848461075c565b60008373ffffffffffffffffffffffffffffffffffffffff163b1461147c5761144584848484611bc3565b61147b576040517fd1a57ed600000000000000000000000000000000000000000000000000000000815260040160405180910390fd5b5b50505050565b600b805461148f90612cd1565b80601f01602080910402602001604051908101604052809291908181526020018280546114bb90612cd1565b80156115085780601f106114dd57610100808354040283529160200191611508565b820191906000526020600020905b8154815290600101906020018083116114eb57829003601f168201915b505050505081565b606061151b82611726565b61155a576040517f08c379a0000000000000000000000000000000000000000000000000000000008152600401611551906128e1565b60405180910390fd5b600d6000838152602001908152602001600020805461157890612cd1565b80601f01602080910402602001604051908101604052809291908181526020018280546115a490612cd1565b80156115f15780601f106115c6576101008083540402835291602001916115f1565b820191906000526020600020905b8154815290600101906020018083116115d457829003601f168201915b50505050509050919050565b600061160960096119a3565b905090565b6000600760008473ffffffffffffffffffffffffffffffffffffffff1673ffffffffffffffffffffffffffffffffffffffff16815260200190815260200160002060008373ffffffffffffffffffffffffffffffffffffffff1673ffffffffffffffffffffffffffffffffffffffff16815260200190815260200160002060009054906101000a900460ff16905092915050565b6116aa611925565b600073ffffffffffffffffffffffffffffffffffffffff168173ffffffffffffffffffffffffffffffffffffffff16141561171a576040517f08c379a000000000000000000000000000000000000000000000000000000000815260040161171190612901565b60405180910390fd5b61172381611afd565b50565b60008161173161178d565b11158015611740575060005482105b801561177e575060007c0100000000000000000000000000000000000000000000000000000000600460008581526020019081526020016000205416145b9050919050565b600033905090565b600090565b600080829050806117a161178d565b11611829576000548110156118285760006004600083815260200190815260200160002054905060007c010000000000000000000000000000000000000000000000000000000082161415611826575b600081141561181c5760046000836001900393508381526020019081526020016000205490506117f1565b809250505061185b565b505b5b6040517fdf2d9b4200000000000000000000000000000000000000000000000000000000815260040160405180910390fd5b919050565b6000806000600690508360005280602052604060002092508254915050915091565b600073ffffffffffffffffffffffffffffffffffffffff8316925073ffffffffffffffffffffffffffffffffffffffff821691508382148383141790509392505050565b50505050565b60008060e883901c905060e86118e3868684611d23565b62ffffff16901b9150509392505050565b600073ffffffffffffffffffffffffffffffffffffffff83169250814260a01b178317905092915050565b50505050565b61192d611d2c565b73ffffffffffffffffffffffffffffffffffffffff1661194b610e56565b73ffffffffffffffffffffffffffffffffffffffff16146119a1576040517f08c379a0000000000000000000000000000000000000000000000000000000008152600401611998906129a1565b60405180910390fd5b565b600081600001549050919050565b6119cb828260405180602001604052806000815250611d34565b5050565b6119d7611925565b6119e082611726565b611a1f576040517f08c379a0000000000000000000000000000000000000000000000000000000008152600401611a1690612921565b60405180910390fd5b80600d60008481526020019081526020016000209080519060200190611a46929190611fde565b505050565b6001816000016000828254019250508190555050565b611af98282604051602401611a779291906128b1565b6040516020818303038152906040527f9710a9d0000000000000000000000000000000000000000000000000000000007bffffffffffffffffffffffffffffffffffffffffffffffffffffffff19166020820180517bffffffffffffffffffffffffffffffffffffffffffffffffffffffff8381831617835250505050611dd1565b5050565b6000600860009054906101000a900473ffffffffffffffffffffffffffffffffffffffff16905081600860006101000a81548173ffffffffffffffffffffffffffffffffffffffff021916908373ffffffffffffffffffffffffffffffffffffffff1602179055508173ffffffffffffffffffffffffffffffffffffffff168173ffffffffffffffffffffffffffffffffffffffff167f8be0079c531659141344cd1fd0a4f28419497f9722a3daafe3b4186f6b6457e060405160405180910390a35050565b60008373ffffffffffffffffffffffffffffffffffffffff1663150b7a02611be9611785565b8786866040518563ffffffff1660e01b8152600401611c0b9493929190612806565b602060405180830381600087803b158015611c2557600080fd5b505af1925050508015611c5657506040513d601f19601f82011682018060405250810190611c53919061247b565b60015b611cd0573d8060008114611c86576040519150601f19603f3d011682016040523d82523d6000602084013e611c8b565b606091505b50600081511415611cc8576040517fd1a57ed600000000000000000000000000000000000000000000000000000000815260040160405180910390fd5b805181602001fd5b63150b7a0260e01b7bffffffffffffffffffffffffffffffffffffffffffffffffffffffff1916817bffffffffffffffffffffffffffffffffffffffffffffffffffffffff191614915050949350505050565b60009392505050565b600033905090565b611d3e8383611dfa565b60008373ffffffffffffffffffffffffffffffffffffffff163b14611dcc57600080549050600083820390505b611d7e6000868380600101945086611bc3565b611db4576040517fd1a57ed600000000000000000000000000000000000000000000000000000000815260040160405180910390fd5b818110611d6b578160005414611dc957600080fd5b50505b505050565b60008151905060006a636f6e736f6c652e6c6f679050602083016000808483855afa5050505050565b600080549050600073ffffffffffffffffffffffffffffffffffffffff168373ffffffffffffffffffffffffffffffffffffffff161415611e67576040517f2e07630000000000000000000000000000000000000000000000000000000000815260040160405180910390fd5b6000821415611ea2576040517fb562e8dd00000000000000000000000000000000000000000000000000000000815260040160405180910390fd5b611eaf60008483856118c6565b600160406001901b178202600560008573ffffffffffffffffffffffffffffffffffffffff1673ffffffffffffffffffffffffffffffffffffffff16815260200190815260200160002060008282540192505081905550611f2683611f1760008660006118cc565b611f2085611fce565b176118f4565b60046000838152602001908152602001600020819055506000819050600083830190505b818060010192508573ffffffffffffffffffffffffffffffffffffffff16600073ffffffffffffffffffffffffffffffffffffffff167fddf252ad1be2c89b69c2b068fc378daa952ba7f163c4a11628f55a4df523b3ef60405160405180910390a4808210611f4a57806000819055505050611fc9600084838561191f565b505050565b60006001821460e11b9050919050565b828054611fea90612cd1565b90600052602060002090601f01602090048101928261200c5760008555612053565b82601f1061202557805160ff1916838001178555612053565b82800160010185558215612053579182015b82811115612052578251825591602001919060010190612037565b5b5090506120609190612064565b5090565b5b8082111561207d576000816000905550600101612065565b5090565b600061209461208f84612a81565b612a5c565b905080838252602082019050828560208602820111156120b357600080fd5b60005b858110156120fd57813567ffffffffffffffff8111156120d557600080fd5b8086016120e2898261222b565b855260208501945060208401935050506001810190506120b6565b5050509392505050565b600061211a61211584612aad565b612a5c565b90508281526020810184848401111561213257600080fd5b61213d848285612c8f565b509392505050565b600061215861215384612ade565b612a5c565b90508281526020810184848401111561217057600080fd5b61217b848285612c8f565b509392505050565b6000813590506121928161309c565b92915050565b600082601f8301126121a957600080fd5b81356121b9848260208601612081565b91505092915050565b6000813590506121d1816130b3565b92915050565b6000813590506121e6816130ca565b92915050565b6000815190506121fb816130ca565b92915050565b600082601f83011261221257600080fd5b8135612222848260208601612107565b91505092915050565b600082601f83011261223c57600080fd5b813561224c848260208601612145565b91505092915050565b600081359050612264816130e1565b92915050565b60006020828403121561227c57600080fd5b600061228a84828501612183565b91505092915050565b600080604083850312156122a657600080fd5b60006122b485828601612183565b92505060206122c585828601612183565b9150509250929050565b6000806000606084860312156122e457600080fd5b60006122f286828701612183565b935050602061230386828701612183565b925050604061231486828701612255565b9150509250925092565b6000806000806080858703121561233457600080fd5b600061234287828801612183565b945050602061235387828801612183565b935050604061236487828801612255565b925050606085013567ffffffffffffffff81111561238157600080fd5b61238d87828801612201565b91505092959194509250565b600080604083850312156123ac57600080fd5b60006123ba85828601612183565b92505060206123cb858286016121c2565b9150509250929050565b600080604083850312156123e857600080fd5b60006123f685828601612183565b925050602061240785828601612255565b9150509250929050565b60006020828403121561242357600080fd5b600082013567ffffffffffffffff81111561243d57600080fd5b61244984828501612198565b91505092915050565b60006020828403121561246457600080fd5b6000612472848285016121d7565b91505092915050565b60006020828403121561248d57600080fd5b600061249b848285016121ec565b91505092915050565b6000602082840312156124b657600080fd5b60006124c484828501612255565b91505092915050565b600080604083850312156124e057600080fd5b60006124ee85828601612255565b92505060206124ff85828601612255565b9150509250929050565b600061251583836125e9565b905092915050565b61252681612c1b565b82525050565b600061253782612b1f565b6125418185612b4d565b93508360208202850161255385612b0f565b8060005b8581101561258f57848403895281516125708582612509565b945061257b83612b40565b925060208a01995050600181019050612557565b50829750879550505050505092915050565b6125aa81612c2d565b82525050565b60006125bb82612b2a565b6125c58185612b5e565b93506125d5818560208601612c9e565b6125de81612e0a565b840191505092915050565b60006125f482612b35565b6125fe8185612b6f565b935061260e818560208601612c9e565b61261781612e0a565b840191505092915050565b600061262d82612b35565b6126378185612b80565b9350612647818560208601612c9e565b61265081612e0a565b840191505092915050565b6000612668603083612b80565b915061267382612e1b565b604082019050919050565b600061268b602683612b80565b915061269682612e6a565b604082019050919050565b60006126ae602c83612b80565b91506126b982612eb9565b604082019050919050565b60006126d1601d83612b80565b91506126dc82612f08565b602082019050919050565b60006126f4600f83612b80565b91506126ff82612f31565b602082019050919050565b6000612717600b83612b80565b915061272282612f5a565b602082019050919050565b600061273a602083612b80565b915061274582612f83565b602082019050919050565b600061275d601e83612b80565b915061276882612fac565b602082019050919050565b6000612780602883612b80565b915061278b82612fd5565b604082019050919050565b60006127a3601483612b80565b91506127ae82613024565b602082019050919050565b60006127c6602383612b80565b91506127d18261304d565b604082019050919050565b6127e581612c85565b82525050565b6000602082019050612800600083018461251d565b92915050565b600060808201905061281b600083018761251d565b612828602083018661251d565b61283560408301856127dc565b818103606083015261284781846125b0565b905095945050505050565b6000602082019050818103600083015261286c818461252c565b905092915050565b600060208201905061288960008301846125a1565b92915050565b600060208201905081810360008301526128a98184612622565b905092915050565b600060408201905081810360008301526128cb8185612622565b90506128da60208301846127dc565b9392505050565b600060208201905081810360008301526128fa8161265b565b9050919050565b6000602082019050818103600083015261291a8161267e565b9050919050565b6000602082019050818103600083015261293a816126a1565b9050919050565b6000602082019050818103600083015261295a816126c4565b9050919050565b6000602082019050818103600083015261297a816126e7565b9050919050565b6000602082019050818103600083015261299a8161270a565b9050919050565b600060208201905081810360008301526129ba8161272d565b9050919050565b600060208201905081810360008301526129da81612750565b9050919050565b600060208201905081810360008301526129fa81612773565b9050919050565b60006020820190508181036000830152612a1a81612796565b9050919050565b60006020820190508181036000830152612a3a816127b9565b9050919050565b6000602082019050612a5660008301846127dc565b92915050565b6000612a66612a77565b9050612a728282612d03565b919050565b6000604051905090565b600067ffffffffffffffff821115612a9c57612a9b612ddb565b5b602082029050602081019050919050565b600067ffffffffffffffff821115612ac857612ac7612ddb565b5b612ad182612e0a565b9050602081019050919050565b600067ffffffffffffffff821115612af957612af8612ddb565b5b612b0282612e0a565b9050602081019050919050565b6000819050602082019050919050565b600081519050919050565b600081519050919050565b600081519050919050565b6000602082019050919050565b600082825260208201905092915050565b600082825260208201905092915050565b600082825260208201905092915050565b600082825260208201905092915050565b6000612b9c82612c85565b9150612ba783612c85565b9250827fffffffffffffffffffffffffffffffffffffffffffffffffffffffffffffffff03821115612bdc57612bdb612d7d565b5b828201905092915050565b6000612bf282612c85565b9150612bfd83612c85565b925082821015612c1057612c0f612d7d565b5b828203905092915050565b6000612c2682612c65565b9050919050565b60008115159050919050565b60007fffffffff0000000000000000000000000000000000000000000000000000000082169050919050565b600073ffffffffffffffffffffffffffffffffffffffff82169050919050565b6000819050919050565b82818337600083830152505050565b60005b83811015612cbc578082015181840152602081019050612ca1565b83811115612ccb576000848401525b50505050565b60006002820490506001821680612ce957607f821691505b60208210811415612cfd57612cfc612dac565b5b50919050565b612d0c82612e0a565b810181811067ffffffffffffffff82111715612d2b57612d2a612ddb565b5b80604052505050565b6000612d3f82612c85565b91507fffffffffffffffffffffffffffffffffffffffffffffffffffffffffffffffff821415612d7257612d71612d7d565b5b600182019050919050565b7f4e487b7100000000000000000000000000000000000000000000000000000000600052601160045260246000fd5b7f4e487b7100000000000000000000000000000000000000000000000000000000600052602260045260246000fd5b7f4e487b7100000000000000000000000000000000000000000000000000000000600052604160045260246000fd5b6000601f19601f8301169050919050565b7f455243373231414d657461646174613a2055524920717565727920666f72206e60008201527f6f6e6578697374656e7420746f6b656e00000000000000000000000000000000602082015250565b7f4f776e61626c653a206e6577206f776e657220697320746865207a65726f206160008201527f6464726573730000000000000000000000000000000000000000000000000000602082015250565b7f746f6b656e20646f6573206e6f742065786973742c20706c656173652063686560008201527f636b2074686520746f6b656e0000000000000000000000000000000000000000602082015250565b7f61646d696e20616464726573732063616e206e6f74206265207a65726f000000600082015250565b7f696e646578206e6f7420666f756e640000000000000000000000000000000000600082015250565b7f456d707479204172726179000000000000000000000000000000000000000000600082015250565b7f4f776e61626c653a2063616c6c6572206973206e6f7420746865206f776e6572600082015250565b7f6f6e6c79206f776e657220616c6c6f77656420746f206d696e74206e66740000600082015250565b7f706c6561736520656e746572206d696e696d756d206f6e65206261736555524c60008201527f20746f206d696e74000000000000000000000000000000000000000000000000602082015250565b7f746f6b656e20646f6573206e6f74206578697374000000000000000000000000600082015250565b7f706c6561736520696e63726561736520746865206d6178204d696e7420416d6f60008201527f756e740000000000000000000000000000000000000000000000000000000000602082015250565b6130a581612c1b565b81146130b057600080fd5b50565b6130bc81612c2d565b81146130c757600080fd5b50565b6130d381612c39565b81146130de57600080fd5b50565b6130ea81612c85565b81146130f557600080fd5b5056fea2646970667358221220b5e276f33f4ecc1390b8463a99f2bb72b88fe141b7077d11afa69aa7af1ee13864736f6c63430008040033",
  "linkReferences": {},
  "deployedLinkReferences": {}
}